{
	"data": {
		"bytecode": {
			"linkReferences": {},
			"object": "60806040523480156200001157600080fd5b5060405162001da138038062001da18339818101604052810190620000379190620000e8565b806000806101000a81548173ffffffffffffffffffffffffffffffffffffffff021916908373ffffffffffffffffffffffffffffffffffffffff160217905550506200011a565b600080fd5b600073ffffffffffffffffffffffffffffffffffffffff82169050919050565b6000620000b08262000083565b9050919050565b620000c281620000a3565b8114620000ce57600080fd5b50565b600081519050620000e281620000b7565b92915050565b6000602082840312156200010157620001006200007e565b5b60006200011184828501620000d1565b91505092915050565b611c77806200012a6000396000f3fe608060405234801561001057600080fd5b506004361061002b5760003560e01c806360be632214610030575b600080fd5b61004a600480360381019061004591906114af565b610060565b604051610057919061157b565b60405180910390f35b60008061006c876104a0565b905060006002826040516100809190611607565b602060405180830381855afa15801561009d573d6000803e3d6000fd5b5050506040513d601f19601f820116820180604052508101906100c09190611654565b90506101046040518060400160405280600d81526020017f7075626c696348617368202573000000000000000000000000000000000000008152508260001c610d40565b6000600e67ffffffffffffffff811115610121576101206110ef565b5b60405190808252806020026020018201604052801561014f5781602001602082028036833780820191505090505b509050600088888101906101639190611732565b905060005b600c811015610212576101c86040518060400160405280600c81526020017f25732d7468206163632025730000000000000000000000000000000000000000815250828484600c81106101be576101bd611760565b5b6020020151610ddc565b8181600c81106101db576101da611760565b5b60200201518382815181106101f3576101f2611760565b5b602002602001018181525050808061020a906117be565b915050610168565b50600060019050600083600c8151811061022f5761022e611760565b5b602002602001018181525050600083600d8151811061025157610250611760565b5b60200260200101818152505060005b601081101561033d5784816020811061027c5761027b611760565b5b1a60f81b60f81c60ff16826102919190611806565b84600c815181106102a5576102a4611760565b5b602002602001018181516102b99190611848565b91508181525050848160106102ce9190611848565b602081106102df576102de611760565b5b1a60f81b60f81c60ff16826102f49190611806565b84600d8151811061030857610307611760565b5b6020026020010181815161031c9190611848565b91508181525050600882901b91508080610335906117be565b915050610260565b506103986040518060400160405280600d81526020017f707562496e70757420312025730000000000000000000000000000000000000081525084600c8151811061038b5761038a611760565b5b6020026020010151610d40565b6103f26040518060400160405280600d81526020017f707562496e70757420322025730000000000000000000000000000000000000081525084600d815181106103e5576103e4611760565b5b6020026020010151610d40565b60008054906101000a900473ffffffffffffffffffffffffffffffffffffffff1673ffffffffffffffffffffffffffffffffffffffff1663bd205a90848a8a6040518463ffffffff1660e01b815260040161044f93929190611978565b602060405180830381865afa15801561046c573d6000803e3d6000fd5b505050506040513d601f19601f8201168201806040525081019061049091906119dd565b9550505050505095945050505050565b606060008260200151601467ffffffffffffffff8111156104c4576104c36110ef565b5b6040519080825280601f01601f1916602001820160405280156104f65781602001600182028036833780820191505090505b50604051602001610508929190611a0a565b60405160208183030381529060405290506000610200806105299190611848565b67ffffffffffffffff811115610542576105416110ef565b5b6040519080825280601f01601f1916602001820160405280156105745781602001600182028036833780820191505090505b5090506000610200806105879190611848565b67ffffffffffffffff8111156105a05761059f6110ef565b5b6040519080825280601f01601f1916602001820160405280156105d25781602001600182028036833780820191505090505b50905060008560200151905060005b81518110156106c2578181815181106105fd576105fc611760565b5b602001015160f81c60f81b848289600001516106199190611848565b8151811061062a57610629611760565b5b60200101907effffffffffffffffffffffffffffffffffffffffffffffffffffffffffffff1916908160001a905350600160f81b8382896000015161066f9190611848565b815181106106805761067f611760565b5b60200101907effffffffffffffffffffffffffffffffffffffffffffffffffffffffffffff1916908160001a90535080806106ba906117be565b9150506105e1565b5060008660600151905060005b81518110156107b0578181815181106106eb576106ea611760565b5b602001015160f81c60f81b85828a604001516107079190611848565b8151811061071857610717611760565b5b60200101907effffffffffffffffffffffffffffffffffffffffffffffffffffffffffffff1916908160001a905350600260f81b84828a6040015161075d9190611848565b8151811061076e5761076d611760565b5b60200101907effffffffffffffffffffffffffffffffffffffffffffffffffffffffffffff1916908160001a90535080806107a8906117be565b9150506106cf565b5060008760a00151905060005b815181101561089e578181815181106107d9576107d8611760565b5b602001015160f81c60f81b86828b608001516107f59190611848565b8151811061080657610805611760565b5b60200101907effffffffffffffffffffffffffffffffffffffffffffffffffffffffffffff1916908160001a905350600360f81b85828b6080015161084b9190611848565b8151811061085c5761085b611760565b5b60200101907effffffffffffffffffffffffffffffffffffffffffffffffffffffffffffff1916908160001a9053508080610896906117be565b9150506107bd565b5060006108ae8960e00151610e7b565b6040516020016108be9190611a9b565b604051602081830303815290604052905060005b81518110156109b3578181815181106108ee576108ed611760565b5b602001015160f81c60f81b87828c60c0015161090a9190611848565b8151811061091b5761091a611760565b5b60200101907effffffffffffffffffffffffffffffffffffffffffffffffffffffffffffff1916908160001a905350600460f81b86828c60c001516109609190611848565b8151811061097157610970611760565b5b60200101907effffffffffffffffffffffffffffffffffffffffffffffffffffffffffffff1916908160001a90535080806109ab906117be565b9150506108d2565b5060006109c48a6101200151610e7b565b6109d28b6101400151610e7b565b6040516020016109e3929190611ae7565b604051602081830303815290604052905060005b8151811015610af457818181518110610a1357610a12611760565b5b602001015160f81c60f81b88828d6101000151610200610a339190611848565b610a3d9190611848565b81518110610a4e57610a4d611760565b5b60200101907effffffffffffffffffffffffffffffffffffffffffffffffffffffffffffff1916908160001a905350600160f81b87828d6101000151610200610a979190611848565b610aa19190611848565b81518110610ab257610ab1611760565b5b60200101907effffffffffffffffffffffffffffffffffffffffffffffffffffffffffffff1916908160001a9053508080610aec906117be565b9150506109f7565b5060008a6101800151905060005b8151811015610bff57818181518110610b1e57610b1d611760565b5b602001015160f81c60f81b89828e6101600151610200610b3e9190611848565b610b489190611848565b81518110610b5957610b58611760565b5b60200101907effffffffffffffffffffffffffffffffffffffffffffffffffffffffffffff1916908160001a905350600260f81b88828e6101600151610200610ba29190611848565b610bac9190611848565b81518110610bbd57610bbc611760565b5b60200101907effffffffffffffffffffffffffffffffffffffffffffffffffffffffffffff1916908160001a9053508080610bf7906117be565b915050610b02565b5060008b6101c00151905060005b8151811015610d0a57818181518110610c2957610c28611760565b5b602001015160f81c60f81b8a828f6101a00151610200610c499190611848565b610c539190611848565b81518110610c6457610c63611760565b5b60200101907effffffffffffffffffffffffffffffffffffffffffffffffffffffffffffff1916908160001a905350600360f81b89828f6101a00151610200610cad9190611848565b610cb79190611848565b81518110610cc857610cc7611760565b5b60200101907effffffffffffffffffffffffffffffffffffffffffffffffffffffffffffff1916908160001a9053508080610d02906117be565b915050610c0d565b50898989604051602001610d2093929190611b1a565b6040516020818303038152906040529a5050505050505050505050919050565b610dd88282604051602401610d56929190611ba4565b6040516020818303038152906040527fb60e72cc000000000000000000000000000000000000000000000000000000007bffffffffffffffffffffffffffffffffffffffffffffffffffffffff19166020820180517bffffffffffffffffffffffffffffffffffffffffffffffffffffffff8381831617835250505050610f49565b5050565b610e76838383604051602401610df493929190611bd4565b6040516020818303038152906040527fca47c4eb000000000000000000000000000000000000000000000000000000007bffffffffffffffffffffffffffffffffffffffffffffffffffffffff19166020820180517bffffffffffffffffffffffffffffffffffffffffffffffffffffffff8381831617835250505050610f49565b505050565b606060006001610e8a84610f72565b01905060008167ffffffffffffffff811115610ea957610ea86110ef565b5b6040519080825280601f01601f191660200182016040528015610edb5781602001600182028036833780820191505090505b509050600082602001820190505b600115610f3e578080600190039150507f3031323334353637383961626364656600000000000000000000000000000000600a86061a8153600a8581610f3257610f31611c12565b5b04945060008503610ee9575b819350505050919050565b60008151905060006a636f6e736f6c652e6c6f679050602083016000808483855afa5050505050565b600080600090507a184f03e93ff9f4daa797ed6e38ed64bf6a1f0100000000000000008310610fd0577a184f03e93ff9f4daa797ed6e38ed64bf6a1f0100000000000000008381610fc657610fc5611c12565b5b0492506040810190505b6d04ee2d6d415b85acef8100000000831061100d576d04ee2d6d415b85acef8100000000838161100357611002611c12565b5b0492506020810190505b662386f26fc10000831061103c57662386f26fc10000838161103257611031611c12565b5b0492506010810190505b6305f5e1008310611065576305f5e100838161105b5761105a611c12565b5b0492506008810190505b612710831061108a5761271083816110805761107f611c12565b5b0492506004810190505b606483106110ad57606483816110a3576110a2611c12565b5b0492506002810190505b600a83106110bc576001810190505b80915050919050565b6000604051905090565b600080fd5b600080fd5b600080fd5b6000601f19601f8301169050919050565b7f4e487b7100000000000000000000000000000000000000000000000000000000600052604160045260246000fd5b611127826110de565b810181811067ffffffffffffffff82111715611146576111456110ef565b5b80604052505050565b60006111596110c5565b9050611165828261111e565b919050565b600080fd5b6000819050919050565b6111828161116f565b811461118d57600080fd5b50565b60008135905061119f81611179565b92915050565b600080fd5b600080fd5b600067ffffffffffffffff8211156111ca576111c96110ef565b5b6111d3826110de565b9050602081019050919050565b82818337600083830152505050565b60006112026111fd846111af565b61114f565b90508281526020810184848401111561121e5761121d6111aa565b5b6112298482856111e0565b509392505050565b600082601f830112611246576112456111a5565b5b81356112568482602086016111ef565b91505092915050565b60006101e08284031215611276576112756110d9565b5b6112816101e061114f565b9050600061129184828501611190565b600083015250602082013567ffffffffffffffff8111156112b5576112b461116a565b5b6112c184828501611231565b60208301525060406112d584828501611190565b604083015250606082013567ffffffffffffffff8111156112f9576112f861116a565b5b61130584828501611231565b606083015250608061131984828501611190565b60808301525060a082013567ffffffffffffffff81111561133d5761133c61116a565b5b61134984828501611231565b60a08301525060c061135d84828501611190565b60c08301525060e061137184828501611190565b60e08301525061010061138684828501611190565b6101008301525061012061139c84828501611190565b610120830152506101406113b284828501611190565b610140830152506101606113c884828501611190565b6101608301525061018082013567ffffffffffffffff8111156113ee576113ed61116a565b5b6113fa84828501611231565b610180830152506101a061141084828501611190565b6101a0830152506101c082013567ffffffffffffffff8111156114365761143561116a565b5b61144284828501611231565b6101c08301525092915050565b600080fd5b600080fd5b60008083601f84011261146f5761146e6111a5565b5b8235905067ffffffffffffffff81111561148c5761148b61144f565b5b6020830191508360018202830111156114a8576114a7611454565b5b9250929050565b6000806000806000606086880312156114cb576114ca6110cf565b5b600086013567ffffffffffffffff8111156114e9576114e86110d4565b5b6114f58882890161125f565b955050602086013567ffffffffffffffff811115611516576115156110d4565b5b61152288828901611459565b9450945050604086013567ffffffffffffffff811115611545576115446110d4565b5b61155188828901611459565b92509250509295509295909350565b60008115159050919050565b61157581611560565b82525050565b6000602082019050611590600083018461156c565b92915050565b600081519050919050565b600081905092915050565b60005b838110156115ca5780820151818401526020810190506115af565b60008484015250505050565b60006115e182611596565b6115eb81856115a1565b93506115fb8185602086016115ac565b80840191505092915050565b600061161382846115d6565b915081905092915050565b6000819050919050565b6116318161161e565b811461163c57600080fd5b50565b60008151905061164e81611628565b92915050565b60006020828403121561166a576116696110cf565b5b60006116788482850161163f565b91505092915050565b600067ffffffffffffffff82111561169c5761169b6110ef565b5b602082029050919050565b60006116ba6116b584611681565b61114f565b905080602084028301858111156116d4576116d3611454565b5b835b818110156116fd57806116e98882611190565b8452602084019350506020810190506116d6565b5050509392505050565b600082601f83011261171c5761171b6111a5565b5b600c6117298482856116a7565b91505092915050565b60006101808284031215611749576117486110cf565b5b600061175784828501611707565b91505092915050565b7f4e487b7100000000000000000000000000000000000000000000000000000000600052603260045260246000fd5b7f4e487b7100000000000000000000000000000000000000000000000000000000600052601160045260246000fd5b60006117c98261116f565b91507fffffffffffffffffffffffffffffffffffffffffffffffffffffffffffffffff82036117fb576117fa61178f565b5b600182019050919050565b60006118118261116f565b915061181c8361116f565b925082820261182a8161116f565b915082820484148315176118415761184061178f565b5b5092915050565b60006118538261116f565b915061185e8361116f565b92508282019050808211156118765761187561178f565b5b92915050565b600081519050919050565b600082825260208201905092915050565b6000819050602082019050919050565b6118b18161116f565b82525050565b60006118c383836118a8565b60208301905092915050565b6000602082019050919050565b60006118e78261187c565b6118f18185611887565b93506118fc83611898565b8060005b8381101561192d57815161191488826118b7565b975061191f836118cf565b925050600181019050611900565b5085935050505092915050565b600082825260208201905092915050565b6000611957838561193a565b93506119648385846111e0565b61196d836110de565b840190509392505050565b6000604082019050818103600083015261199281866118dc565b905081810360208301526119a781848661194b565b9050949350505050565b6119ba81611560565b81146119c557600080fd5b50565b6000815190506119d7816119b1565b92915050565b6000602082840312156119f3576119f26110cf565b5b6000611a01848285016119c8565b91505092915050565b6000611a1682856115d6565b9150611a2282846115d6565b91508190509392505050565b7f456d61696c2057616c6c6574204d616e6970756c6174696f6e20494420000000815250565b600081519050919050565b600081905092915050565b6000611a7582611a54565b611a7f8185611a5f565b9350611a8f8185602086016115ac565b80840191505092915050565b6000611aa682611a2e565b601d82019150611ab68284611a6a565b915081905092915050565b7f2e00000000000000000000000000000000000000000000000000000000000000815250565b6000611af38285611a6a565b9150611afe82611ac1565b600182019150611b0e8284611a6a565b91508190509392505050565b6000611b2682866115d6565b9150611b3282856115d6565b9150611b3e82846115d6565b9150819050949350505050565b600082825260208201905092915050565b6000611b6782611a54565b611b718185611b4b565b9350611b818185602086016115ac565b611b8a816110de565b840191505092915050565b611b9e8161116f565b82525050565b60006040820190508181036000830152611bbe8185611b5c565b9050611bcd6020830184611b95565b9392505050565b60006060820190508181036000830152611bee8186611b5c565b9050611bfd6020830185611b95565b611c0a6040830184611b95565b949350505050565b7f4e487b7100000000000000000000000000000000000000000000000000000000600052601260045260246000fdfea26469706673582212202cfb4733ceec53e5db3964523b3e02aa186dc29ce71a56b0db90c80b48d9d43464736f6c63430008110033",
			"opcodes": "PUSH1 0x80 PUSH1 0x40 MSTORE CALLVALUE DUP1 ISZERO PUSH3 0x11 JUMPI PUSH1 0x0 DUP1 REVERT JUMPDEST POP PUSH1 0x40 MLOAD PUSH3 0x1DA1 CODESIZE SUB DUP1 PUSH3 0x1DA1 DUP4 CODECOPY DUP2 DUP2 ADD PUSH1 0x40 MSTORE DUP2 ADD SWAP1 PUSH3 0x37 SWAP2 SWAP1 PUSH3 0xE8 JUMP JUMPDEST DUP1 PUSH1 0x0 DUP1 PUSH2 0x100 EXP DUP2 SLOAD DUP2 PUSH20 0xFFFFFFFFFFFFFFFFFFFFFFFFFFFFFFFFFFFFFFFF MUL NOT AND SWAP1 DUP4 PUSH20 0xFFFFFFFFFFFFFFFFFFFFFFFFFFFFFFFFFFFFFFFF AND MUL OR SWAP1 SSTORE POP POP PUSH3 0x11A JUMP JUMPDEST PUSH1 0x0 DUP1 REVERT JUMPDEST PUSH1 0x0 PUSH20 0xFFFFFFFFFFFFFFFFFFFFFFFFFFFFFFFFFFFFFFFF DUP3 AND SWAP1 POP SWAP2 SWAP1 POP JUMP JUMPDEST PUSH1 0x0 PUSH3 0xB0 DUP3 PUSH3 0x83 JUMP JUMPDEST SWAP1 POP SWAP2 SWAP1 POP JUMP JUMPDEST PUSH3 0xC2 DUP2 PUSH3 0xA3 JUMP JUMPDEST DUP2 EQ PUSH3 0xCE JUMPI PUSH1 0x0 DUP1 REVERT JUMPDEST POP JUMP JUMPDEST PUSH1 0x0 DUP2 MLOAD SWAP1 POP PUSH3 0xE2 DUP2 PUSH3 0xB7 JUMP JUMPDEST SWAP3 SWAP2 POP POP JUMP JUMPDEST PUSH1 0x0 PUSH1 0x20 DUP3 DUP5 SUB SLT ISZERO PUSH3 0x101 JUMPI PUSH3 0x100 PUSH3 0x7E JUMP JUMPDEST JUMPDEST PUSH1 0x0 PUSH3 0x111 DUP5 DUP3 DUP6 ADD PUSH3 0xD1 JUMP JUMPDEST SWAP2 POP POP SWAP3 SWAP2 POP POP JUMP JUMPDEST PUSH2 0x1C77 DUP1 PUSH3 0x12A PUSH1 0x0 CODECOPY PUSH1 0x0 RETURN INVALID PUSH1 0x80 PUSH1 0x40 MSTORE CALLVALUE DUP1 ISZERO PUSH2 0x10 JUMPI PUSH1 0x0 DUP1 REVERT JUMPDEST POP PUSH1 0x4 CALLDATASIZE LT PUSH2 0x2B JUMPI PUSH1 0x0 CALLDATALOAD PUSH1 0xE0 SHR DUP1 PUSH4 0x60BE6322 EQ PUSH2 0x30 JUMPI JUMPDEST PUSH1 0x0 DUP1 REVERT JUMPDEST PUSH2 0x4A PUSH1 0x4 DUP1 CALLDATASIZE SUB DUP2 ADD SWAP1 PUSH2 0x45 SWAP2 SWAP1 PUSH2 0x14AF JUMP JUMPDEST PUSH2 0x60 JUMP JUMPDEST PUSH1 0x40 MLOAD PUSH2 0x57 SWAP2 SWAP1 PUSH2 0x157B JUMP JUMPDEST PUSH1 0x40 MLOAD DUP1 SWAP2 SUB SWAP1 RETURN JUMPDEST PUSH1 0x0 DUP1 PUSH2 0x6C DUP8 PUSH2 0x4A0 JUMP JUMPDEST SWAP1 POP PUSH1 0x0 PUSH1 0x2 DUP3 PUSH1 0x40 MLOAD PUSH2 0x80 SWAP2 SWAP1 PUSH2 0x1607 JUMP JUMPDEST PUSH1 0x20 PUSH1 0x40 MLOAD DUP1 DUP4 SUB DUP2 DUP6 GAS STATICCALL ISZERO DUP1 ISZERO PUSH2 0x9D JUMPI RETURNDATASIZE PUSH1 0x0 DUP1 RETURNDATACOPY RETURNDATASIZE PUSH1 0x0 REVERT JUMPDEST POP POP POP PUSH1 0x40 MLOAD RETURNDATASIZE PUSH1 0x1F NOT PUSH1 0x1F DUP3 ADD AND DUP3 ADD DUP1 PUSH1 0x40 MSTORE POP DUP2 ADD SWAP1 PUSH2 0xC0 SWAP2 SWAP1 PUSH2 0x1654 JUMP JUMPDEST SWAP1 POP PUSH2 0x104 PUSH1 0x40 MLOAD DUP1 PUSH1 0x40 ADD PUSH1 0x40 MSTORE DUP1 PUSH1 0xD DUP2 MSTORE PUSH1 0x20 ADD PUSH32 0x7075626C69634861736820257300000000000000000000000000000000000000 DUP2 MSTORE POP DUP3 PUSH1 0x0 SHR PUSH2 0xD40 JUMP JUMPDEST PUSH1 0x0 PUSH1 0xE PUSH8 0xFFFFFFFFFFFFFFFF DUP2 GT ISZERO PUSH2 0x121 JUMPI PUSH2 0x120 PUSH2 0x10EF JUMP JUMPDEST JUMPDEST PUSH1 0x40 MLOAD SWAP1 DUP1 DUP3 MSTORE DUP1 PUSH1 0x20 MUL PUSH1 0x20 ADD DUP3 ADD PUSH1 0x40 MSTORE DUP1 ISZERO PUSH2 0x14F JUMPI DUP2 PUSH1 0x20 ADD PUSH1 0x20 DUP3 MUL DUP1 CALLDATASIZE DUP4 CALLDATACOPY DUP1 DUP3 ADD SWAP2 POP POP SWAP1 POP JUMPDEST POP SWAP1 POP PUSH1 0x0 DUP9 DUP9 DUP2 ADD SWAP1 PUSH2 0x163 SWAP2 SWAP1 PUSH2 0x1732 JUMP JUMPDEST SWAP1 POP PUSH1 0x0 JUMPDEST PUSH1 0xC DUP2 LT ISZERO PUSH2 0x212 JUMPI PUSH2 0x1C8 PUSH1 0x40 MLOAD DUP1 PUSH1 0x40 ADD PUSH1 0x40 MSTORE DUP1 PUSH1 0xC DUP2 MSTORE PUSH1 0x20 ADD PUSH32 0x25732D7468206163632025730000000000000000000000000000000000000000 DUP2 MSTORE POP DUP3 DUP5 DUP5 PUSH1 0xC DUP2 LT PUSH2 0x1BE JUMPI PUSH2 0x1BD PUSH2 0x1760 JUMP JUMPDEST JUMPDEST PUSH1 0x20 MUL ADD MLOAD PUSH2 0xDDC JUMP JUMPDEST DUP2 DUP2 PUSH1 0xC DUP2 LT PUSH2 0x1DB JUMPI PUSH2 0x1DA PUSH2 0x1760 JUMP JUMPDEST JUMPDEST PUSH1 0x20 MUL ADD MLOAD DUP4 DUP3 DUP2 MLOAD DUP2 LT PUSH2 0x1F3 JUMPI PUSH2 0x1F2 PUSH2 0x1760 JUMP JUMPDEST JUMPDEST PUSH1 0x20 MUL PUSH1 0x20 ADD ADD DUP2 DUP2 MSTORE POP POP DUP1 DUP1 PUSH2 0x20A SWAP1 PUSH2 0x17BE JUMP JUMPDEST SWAP2 POP POP PUSH2 0x168 JUMP JUMPDEST POP PUSH1 0x0 PUSH1 0x1 SWAP1 POP PUSH1 0x0 DUP4 PUSH1 0xC DUP2 MLOAD DUP2 LT PUSH2 0x22F JUMPI PUSH2 0x22E PUSH2 0x1760 JUMP JUMPDEST JUMPDEST PUSH1 0x20 MUL PUSH1 0x20 ADD ADD DUP2 DUP2 MSTORE POP POP PUSH1 0x0 DUP4 PUSH1 0xD DUP2 MLOAD DUP2 LT PUSH2 0x251 JUMPI PUSH2 0x250 PUSH2 0x1760 JUMP JUMPDEST JUMPDEST PUSH1 0x20 MUL PUSH1 0x20 ADD ADD DUP2 DUP2 MSTORE POP POP PUSH1 0x0 JUMPDEST PUSH1 0x10 DUP2 LT ISZERO PUSH2 0x33D JUMPI DUP5 DUP2 PUSH1 0x20 DUP2 LT PUSH2 0x27C JUMPI PUSH2 0x27B PUSH2 0x1760 JUMP JUMPDEST JUMPDEST BYTE PUSH1 0xF8 SHL PUSH1 0xF8 SHR PUSH1 0xFF AND DUP3 PUSH2 0x291 SWAP2 SWAP1 PUSH2 0x1806 JUMP JUMPDEST DUP5 PUSH1 0xC DUP2 MLOAD DUP2 LT PUSH2 0x2A5 JUMPI PUSH2 0x2A4 PUSH2 0x1760 JUMP JUMPDEST JUMPDEST PUSH1 0x20 MUL PUSH1 0x20 ADD ADD DUP2 DUP2 MLOAD PUSH2 0x2B9 SWAP2 SWAP1 PUSH2 0x1848 JUMP JUMPDEST SWAP2 POP DUP2 DUP2 MSTORE POP POP DUP5 DUP2 PUSH1 0x10 PUSH2 0x2CE SWAP2 SWAP1 PUSH2 0x1848 JUMP JUMPDEST PUSH1 0x20 DUP2 LT PUSH2 0x2DF JUMPI PUSH2 0x2DE PUSH2 0x1760 JUMP JUMPDEST JUMPDEST BYTE PUSH1 0xF8 SHL PUSH1 0xF8 SHR PUSH1 0xFF AND DUP3 PUSH2 0x2F4 SWAP2 SWAP1 PUSH2 0x1806 JUMP JUMPDEST DUP5 PUSH1 0xD DUP2 MLOAD DUP2 LT PUSH2 0x308 JUMPI PUSH2 0x307 PUSH2 0x1760 JUMP JUMPDEST JUMPDEST PUSH1 0x20 MUL PUSH1 0x20 ADD ADD DUP2 DUP2 MLOAD PUSH2 0x31C SWAP2 SWAP1 PUSH2 0x1848 JUMP JUMPDEST SWAP2 POP DUP2 DUP2 MSTORE POP POP PUSH1 0x8 DUP3 SWAP1 SHL SWAP2 POP DUP1 DUP1 PUSH2 0x335 SWAP1 PUSH2 0x17BE JUMP JUMPDEST SWAP2 POP POP PUSH2 0x260 JUMP JUMPDEST POP PUSH2 0x398 PUSH1 0x40 MLOAD DUP1 PUSH1 0x40 ADD PUSH1 0x40 MSTORE DUP1 PUSH1 0xD DUP2 MSTORE PUSH1 0x20 ADD PUSH32 0x707562496E707574203120257300000000000000000000000000000000000000 DUP2 MSTORE POP DUP5 PUSH1 0xC DUP2 MLOAD DUP2 LT PUSH2 0x38B JUMPI PUSH2 0x38A PUSH2 0x1760 JUMP JUMPDEST JUMPDEST PUSH1 0x20 MUL PUSH1 0x20 ADD ADD MLOAD PUSH2 0xD40 JUMP JUMPDEST PUSH2 0x3F2 PUSH1 0x40 MLOAD DUP1 PUSH1 0x40 ADD PUSH1 0x40 MSTORE DUP1 PUSH1 0xD DUP2 MSTORE PUSH1 0x20 ADD PUSH32 0x707562496E707574203220257300000000000000000000000000000000000000 DUP2 MSTORE POP DUP5 PUSH1 0xD DUP2 MLOAD DUP2 LT PUSH2 0x3E5 JUMPI PUSH2 0x3E4 PUSH2 0x1760 JUMP JUMPDEST JUMPDEST PUSH1 0x20 MUL PUSH1 0x20 ADD ADD MLOAD PUSH2 0xD40 JUMP JUMPDEST PUSH1 0x0 DUP1 SLOAD SWAP1 PUSH2 0x100 EXP SWAP1 DIV PUSH20 0xFFFFFFFFFFFFFFFFFFFFFFFFFFFFFFFFFFFFFFFF AND PUSH20 0xFFFFFFFFFFFFFFFFFFFFFFFFFFFFFFFFFFFFFFFF AND PUSH4 0xBD205A90 DUP5 DUP11 DUP11 PUSH1 0x40 MLOAD DUP5 PUSH4 0xFFFFFFFF AND PUSH1 0xE0 SHL DUP2 MSTORE PUSH1 0x4 ADD PUSH2 0x44F SWAP4 SWAP3 SWAP2 SWAP1 PUSH2 0x1978 JUMP JUMPDEST PUSH1 0x20 PUSH1 0x40 MLOAD DUP1 DUP4 SUB DUP2 DUP7 GAS STATICCALL ISZERO DUP1 ISZERO PUSH2 0x46C JUMPI RETURNDATASIZE PUSH1 0x0 DUP1 RETURNDATACOPY RETURNDATASIZE PUSH1 0x0 REVERT JUMPDEST POP POP POP POP PUSH1 0x40 MLOAD RETURNDATASIZE PUSH1 0x1F NOT PUSH1 0x1F DUP3 ADD AND DUP3 ADD DUP1 PUSH1 0x40 MSTORE POP DUP2 ADD SWAP1 PUSH2 0x490 SWAP2 SWAP1 PUSH2 0x19DD JUMP JUMPDEST SWAP6 POP POP POP POP POP POP SWAP6 SWAP5 POP POP POP POP POP JUMP JUMPDEST PUSH1 0x60 PUSH1 0x0 DUP3 PUSH1 0x20 ADD MLOAD PUSH1 0x14 PUSH8 0xFFFFFFFFFFFFFFFF DUP2 GT ISZERO PUSH2 0x4C4 JUMPI PUSH2 0x4C3 PUSH2 0x10EF JUMP JUMPDEST JUMPDEST PUSH1 0x40 MLOAD SWAP1 DUP1 DUP3 MSTORE DUP1 PUSH1 0x1F ADD PUSH1 0x1F NOT AND PUSH1 0x20 ADD DUP3 ADD PUSH1 0x40 MSTORE DUP1 ISZERO PUSH2 0x4F6 JUMPI DUP2 PUSH1 0x20 ADD PUSH1 0x1 DUP3 MUL DUP1 CALLDATASIZE DUP4 CALLDATACOPY DUP1 DUP3 ADD SWAP2 POP POP SWAP1 POP JUMPDEST POP PUSH1 0x40 MLOAD PUSH1 0x20 ADD PUSH2 0x508 SWAP3 SWAP2 SWAP1 PUSH2 0x1A0A JUMP JUMPDEST PUSH1 0x40 MLOAD PUSH1 0x20 DUP2 DUP4 SUB SUB DUP2 MSTORE SWAP1 PUSH1 0x40 MSTORE SWAP1 POP PUSH1 0x0 PUSH2 0x200 DUP1 PUSH2 0x529 SWAP2 SWAP1 PUSH2 0x1848 JUMP JUMPDEST PUSH8 0xFFFFFFFFFFFFFFFF DUP2 GT ISZERO PUSH2 0x542 JUMPI PUSH2 0x541 PUSH2 0x10EF JUMP JUMPDEST JUMPDEST PUSH1 0x40 MLOAD SWAP1 DUP1 DUP3 MSTORE DUP1 PUSH1 0x1F ADD PUSH1 0x1F NOT AND PUSH1 0x20 ADD DUP3 ADD PUSH1 0x40 MSTORE DUP1 ISZERO PUSH2 0x574 JUMPI DUP2 PUSH1 0x20 ADD PUSH1 0x1 DUP3 MUL DUP1 CALLDATASIZE DUP4 CALLDATACOPY DUP1 DUP3 ADD SWAP2 POP POP SWAP1 POP JUMPDEST POP SWAP1 POP PUSH1 0x0 PUSH2 0x200 DUP1 PUSH2 0x587 SWAP2 SWAP1 PUSH2 0x1848 JUMP JUMPDEST PUSH8 0xFFFFFFFFFFFFFFFF DUP2 GT ISZERO PUSH2 0x5A0 JUMPI PUSH2 0x59F PUSH2 0x10EF JUMP JUMPDEST JUMPDEST PUSH1 0x40 MLOAD SWAP1 DUP1 DUP3 MSTORE DUP1 PUSH1 0x1F ADD PUSH1 0x1F NOT AND PUSH1 0x20 ADD DUP3 ADD PUSH1 0x40 MSTORE DUP1 ISZERO PUSH2 0x5D2 JUMPI DUP2 PUSH1 0x20 ADD PUSH1 0x1 DUP3 MUL DUP1 CALLDATASIZE DUP4 CALLDATACOPY DUP1 DUP3 ADD SWAP2 POP POP SWAP1 POP JUMPDEST POP SWAP1 POP PUSH1 0x0 DUP6 PUSH1 0x20 ADD MLOAD SWAP1 POP PUSH1 0x0 JUMPDEST DUP2 MLOAD DUP2 LT ISZERO PUSH2 0x6C2 JUMPI DUP2 DUP2 DUP2 MLOAD DUP2 LT PUSH2 0x5FD JUMPI PUSH2 0x5FC PUSH2 0x1760 JUMP JUMPDEST JUMPDEST PUSH1 0x20 ADD ADD MLOAD PUSH1 0xF8 SHR PUSH1 0xF8 SHL DUP5 DUP3 DUP10 PUSH1 0x0 ADD MLOAD PUSH2 0x619 SWAP2 SWAP1 PUSH2 0x1848 JUMP JUMPDEST DUP2 MLOAD DUP2 LT PUSH2 0x62A JUMPI PUSH2 0x629 PUSH2 0x1760 JUMP JUMPDEST JUMPDEST PUSH1 0x20 ADD ADD SWAP1 PUSH31 0xFFFFFFFFFFFFFFFFFFFFFFFFFFFFFFFFFFFFFFFFFFFFFFFFFFFFFFFFFFFFFF NOT AND SWAP1 DUP2 PUSH1 0x0 BYTE SWAP1 MSTORE8 POP PUSH1 0x1 PUSH1 0xF8 SHL DUP4 DUP3 DUP10 PUSH1 0x0 ADD MLOAD PUSH2 0x66F SWAP2 SWAP1 PUSH2 0x1848 JUMP JUMPDEST DUP2 MLOAD DUP2 LT PUSH2 0x680 JUMPI PUSH2 0x67F PUSH2 0x1760 JUMP JUMPDEST JUMPDEST PUSH1 0x20 ADD ADD SWAP1 PUSH31 0xFFFFFFFFFFFFFFFFFFFFFFFFFFFFFFFFFFFFFFFFFFFFFFFFFFFFFFFFFFFFFF NOT AND SWAP1 DUP2 PUSH1 0x0 BYTE SWAP1 MSTORE8 POP DUP1 DUP1 PUSH2 0x6BA SWAP1 PUSH2 0x17BE JUMP JUMPDEST SWAP2 POP POP PUSH2 0x5E1 JUMP JUMPDEST POP PUSH1 0x0 DUP7 PUSH1 0x60 ADD MLOAD SWAP1 POP PUSH1 0x0 JUMPDEST DUP2 MLOAD DUP2 LT ISZERO PUSH2 0x7B0 JUMPI DUP2 DUP2 DUP2 MLOAD DUP2 LT PUSH2 0x6EB JUMPI PUSH2 0x6EA PUSH2 0x1760 JUMP JUMPDEST JUMPDEST PUSH1 0x20 ADD ADD MLOAD PUSH1 0xF8 SHR PUSH1 0xF8 SHL DUP6 DUP3 DUP11 PUSH1 0x40 ADD MLOAD PUSH2 0x707 SWAP2 SWAP1 PUSH2 0x1848 JUMP JUMPDEST DUP2 MLOAD DUP2 LT PUSH2 0x718 JUMPI PUSH2 0x717 PUSH2 0x1760 JUMP JUMPDEST JUMPDEST PUSH1 0x20 ADD ADD SWAP1 PUSH31 0xFFFFFFFFFFFFFFFFFFFFFFFFFFFFFFFFFFFFFFFFFFFFFFFFFFFFFFFFFFFFFF NOT AND SWAP1 DUP2 PUSH1 0x0 BYTE SWAP1 MSTORE8 POP PUSH1 0x2 PUSH1 0xF8 SHL DUP5 DUP3 DUP11 PUSH1 0x40 ADD MLOAD PUSH2 0x75D SWAP2 SWAP1 PUSH2 0x1848 JUMP JUMPDEST DUP2 MLOAD DUP2 LT PUSH2 0x76E JUMPI PUSH2 0x76D PUSH2 0x1760 JUMP JUMPDEST JUMPDEST PUSH1 0x20 ADD ADD SWAP1 PUSH31 0xFFFFFFFFFFFFFFFFFFFFFFFFFFFFFFFFFFFFFFFFFFFFFFFFFFFFFFFFFFFFFF NOT AND SWAP1 DUP2 PUSH1 0x0 BYTE SWAP1 MSTORE8 POP DUP1 DUP1 PUSH2 0x7A8 SWAP1 PUSH2 0x17BE JUMP JUMPDEST SWAP2 POP POP PUSH2 0x6CF JUMP JUMPDEST POP PUSH1 0x0 DUP8 PUSH1 0xA0 ADD MLOAD SWAP1 POP PUSH1 0x0 JUMPDEST DUP2 MLOAD DUP2 LT ISZERO PUSH2 0x89E JUMPI DUP2 DUP2 DUP2 MLOAD DUP2 LT PUSH2 0x7D9 JUMPI PUSH2 0x7D8 PUSH2 0x1760 JUMP JUMPDEST JUMPDEST PUSH1 0x20 ADD ADD MLOAD PUSH1 0xF8 SHR PUSH1 0xF8 SHL DUP7 DUP3 DUP12 PUSH1 0x80 ADD MLOAD PUSH2 0x7F5 SWAP2 SWAP1 PUSH2 0x1848 JUMP JUMPDEST DUP2 MLOAD DUP2 LT PUSH2 0x806 JUMPI PUSH2 0x805 PUSH2 0x1760 JUMP JUMPDEST JUMPDEST PUSH1 0x20 ADD ADD SWAP1 PUSH31 0xFFFFFFFFFFFFFFFFFFFFFFFFFFFFFFFFFFFFFFFFFFFFFFFFFFFFFFFFFFFFFF NOT AND SWAP1 DUP2 PUSH1 0x0 BYTE SWAP1 MSTORE8 POP PUSH1 0x3 PUSH1 0xF8 SHL DUP6 DUP3 DUP12 PUSH1 0x80 ADD MLOAD PUSH2 0x84B SWAP2 SWAP1 PUSH2 0x1848 JUMP JUMPDEST DUP2 MLOAD DUP2 LT PUSH2 0x85C JUMPI PUSH2 0x85B PUSH2 0x1760 JUMP JUMPDEST JUMPDEST PUSH1 0x20 ADD ADD SWAP1 PUSH31 0xFFFFFFFFFFFFFFFFFFFFFFFFFFFFFFFFFFFFFFFFFFFFFFFFFFFFFFFFFFFFFF NOT AND SWAP1 DUP2 PUSH1 0x0 BYTE SWAP1 MSTORE8 POP DUP1 DUP1 PUSH2 0x896 SWAP1 PUSH2 0x17BE JUMP JUMPDEST SWAP2 POP POP PUSH2 0x7BD JUMP JUMPDEST POP PUSH1 0x0 PUSH2 0x8AE DUP10 PUSH1 0xE0 ADD MLOAD PUSH2 0xE7B JUMP JUMPDEST PUSH1 0x40 MLOAD PUSH1 0x20 ADD PUSH2 0x8BE SWAP2 SWAP1 PUSH2 0x1A9B JUMP JUMPDEST PUSH1 0x40 MLOAD PUSH1 0x20 DUP2 DUP4 SUB SUB DUP2 MSTORE SWAP1 PUSH1 0x40 MSTORE SWAP1 POP PUSH1 0x0 JUMPDEST DUP2 MLOAD DUP2 LT ISZERO PUSH2 0x9B3 JUMPI DUP2 DUP2 DUP2 MLOAD DUP2 LT PUSH2 0x8EE JUMPI PUSH2 0x8ED PUSH2 0x1760 JUMP JUMPDEST JUMPDEST PUSH1 0x20 ADD ADD MLOAD PUSH1 0xF8 SHR PUSH1 0xF8 SHL DUP8 DUP3 DUP13 PUSH1 0xC0 ADD MLOAD PUSH2 0x90A SWAP2 SWAP1 PUSH2 0x1848 JUMP JUMPDEST DUP2 MLOAD DUP2 LT PUSH2 0x91B JUMPI PUSH2 0x91A PUSH2 0x1760 JUMP JUMPDEST JUMPDEST PUSH1 0x20 ADD ADD SWAP1 PUSH31 0xFFFFFFFFFFFFFFFFFFFFFFFFFFFFFFFFFFFFFFFFFFFFFFFFFFFFFFFFFFFFFF NOT AND SWAP1 DUP2 PUSH1 0x0 BYTE SWAP1 MSTORE8 POP PUSH1 0x4 PUSH1 0xF8 SHL DUP7 DUP3 DUP13 PUSH1 0xC0 ADD MLOAD PUSH2 0x960 SWAP2 SWAP1 PUSH2 0x1848 JUMP JUMPDEST DUP2 MLOAD DUP2 LT PUSH2 0x971 JUMPI PUSH2 0x970 PUSH2 0x1760 JUMP JUMPDEST JUMPDEST PUSH1 0x20 ADD ADD SWAP1 PUSH31 0xFFFFFFFFFFFFFFFFFFFFFFFFFFFFFFFFFFFFFFFFFFFFFFFFFFFFFFFFFFFFFF NOT AND SWAP1 DUP2 PUSH1 0x0 BYTE SWAP1 MSTORE8 POP DUP1 DUP1 PUSH2 0x9AB SWAP1 PUSH2 0x17BE JUMP JUMPDEST SWAP2 POP POP PUSH2 0x8D2 JUMP JUMPDEST POP PUSH1 0x0 PUSH2 0x9C4 DUP11 PUSH2 0x120 ADD MLOAD PUSH2 0xE7B JUMP JUMPDEST PUSH2 0x9D2 DUP12 PUSH2 0x140 ADD MLOAD PUSH2 0xE7B JUMP JUMPDEST PUSH1 0x40 MLOAD PUSH1 0x20 ADD PUSH2 0x9E3 SWAP3 SWAP2 SWAP1 PUSH2 0x1AE7 JUMP JUMPDEST PUSH1 0x40 MLOAD PUSH1 0x20 DUP2 DUP4 SUB SUB DUP2 MSTORE SWAP1 PUSH1 0x40 MSTORE SWAP1 POP PUSH1 0x0 JUMPDEST DUP2 MLOAD DUP2 LT ISZERO PUSH2 0xAF4 JUMPI DUP2 DUP2 DUP2 MLOAD DUP2 LT PUSH2 0xA13 JUMPI PUSH2 0xA12 PUSH2 0x1760 JUMP JUMPDEST JUMPDEST PUSH1 0x20 ADD ADD MLOAD PUSH1 0xF8 SHR PUSH1 0xF8 SHL DUP9 DUP3 DUP14 PUSH2 0x100 ADD MLOAD PUSH2 0x200 PUSH2 0xA33 SWAP2 SWAP1 PUSH2 0x1848 JUMP JUMPDEST PUSH2 0xA3D SWAP2 SWAP1 PUSH2 0x1848 JUMP JUMPDEST DUP2 MLOAD DUP2 LT PUSH2 0xA4E JUMPI PUSH2 0xA4D PUSH2 0x1760 JUMP JUMPDEST JUMPDEST PUSH1 0x20 ADD ADD SWAP1 PUSH31 0xFFFFFFFFFFFFFFFFFFFFFFFFFFFFFFFFFFFFFFFFFFFFFFFFFFFFFFFFFFFFFF NOT AND SWAP1 DUP2 PUSH1 0x0 BYTE SWAP1 MSTORE8 POP PUSH1 0x1 PUSH1 0xF8 SHL DUP8 DUP3 DUP14 PUSH2 0x100 ADD MLOAD PUSH2 0x200 PUSH2 0xA97 SWAP2 SWAP1 PUSH2 0x1848 JUMP JUMPDEST PUSH2 0xAA1 SWAP2 SWAP1 PUSH2 0x1848 JUMP JUMPDEST DUP2 MLOAD DUP2 LT PUSH2 0xAB2 JUMPI PUSH2 0xAB1 PUSH2 0x1760 JUMP JUMPDEST JUMPDEST PUSH1 0x20 ADD ADD SWAP1 PUSH31 0xFFFFFFFFFFFFFFFFFFFFFFFFFFFFFFFFFFFFFFFFFFFFFFFFFFFFFFFFFFFFFF NOT AND SWAP1 DUP2 PUSH1 0x0 BYTE SWAP1 MSTORE8 POP DUP1 DUP1 PUSH2 0xAEC SWAP1 PUSH2 0x17BE JUMP JUMPDEST SWAP2 POP POP PUSH2 0x9F7 JUMP JUMPDEST POP PUSH1 0x0 DUP11 PUSH2 0x180 ADD MLOAD SWAP1 POP PUSH1 0x0 JUMPDEST DUP2 MLOAD DUP2 LT ISZERO PUSH2 0xBFF JUMPI DUP2 DUP2 DUP2 MLOAD DUP2 LT PUSH2 0xB1E JUMPI PUSH2 0xB1D PUSH2 0x1760 JUMP JUMPDEST JUMPDEST PUSH1 0x20 ADD ADD MLOAD PUSH1 0xF8 SHR PUSH1 0xF8 SHL DUP10 DUP3 DUP15 PUSH2 0x160 ADD MLOAD PUSH2 0x200 PUSH2 0xB3E SWAP2 SWAP1 PUSH2 0x1848 JUMP JUMPDEST PUSH2 0xB48 SWAP2 SWAP1 PUSH2 0x1848 JUMP JUMPDEST DUP2 MLOAD DUP2 LT PUSH2 0xB59 JUMPI PUSH2 0xB58 PUSH2 0x1760 JUMP JUMPDEST JUMPDEST PUSH1 0x20 ADD ADD SWAP1 PUSH31 0xFFFFFFFFFFFFFFFFFFFFFFFFFFFFFFFFFFFFFFFFFFFFFFFFFFFFFFFFFFFFFF NOT AND SWAP1 DUP2 PUSH1 0x0 BYTE SWAP1 MSTORE8 POP PUSH1 0x2 PUSH1 0xF8 SHL DUP9 DUP3 DUP15 PUSH2 0x160 ADD MLOAD PUSH2 0x200 PUSH2 0xBA2 SWAP2 SWAP1 PUSH2 0x1848 JUMP JUMPDEST PUSH2 0xBAC SWAP2 SWAP1 PUSH2 0x1848 JUMP JUMPDEST DUP2 MLOAD DUP2 LT PUSH2 0xBBD JUMPI PUSH2 0xBBC PUSH2 0x1760 JUMP JUMPDEST JUMPDEST PUSH1 0x20 ADD ADD SWAP1 PUSH31 0xFFFFFFFFFFFFFFFFFFFFFFFFFFFFFFFFFFFFFFFFFFFFFFFFFFFFFFFFFFFFFF NOT AND SWAP1 DUP2 PUSH1 0x0 BYTE SWAP1 MSTORE8 POP DUP1 DUP1 PUSH2 0xBF7 SWAP1 PUSH2 0x17BE JUMP JUMPDEST SWAP2 POP POP PUSH2 0xB02 JUMP JUMPDEST POP PUSH1 0x0 DUP12 PUSH2 0x1C0 ADD MLOAD SWAP1 POP PUSH1 0x0 JUMPDEST DUP2 MLOAD DUP2 LT ISZERO PUSH2 0xD0A JUMPI DUP2 DUP2 DUP2 MLOAD DUP2 LT PUSH2 0xC29 JUMPI PUSH2 0xC28 PUSH2 0x1760 JUMP JUMPDEST JUMPDEST PUSH1 0x20 ADD ADD MLOAD PUSH1 0xF8 SHR PUSH1 0xF8 SHL DUP11 DUP3 DUP16 PUSH2 0x1A0 ADD MLOAD PUSH2 0x200 PUSH2 0xC49 SWAP2 SWAP1 PUSH2 0x1848 JUMP JUMPDEST PUSH2 0xC53 SWAP2 SWAP1 PUSH2 0x1848 JUMP JUMPDEST DUP2 MLOAD DUP2 LT PUSH2 0xC64 JUMPI PUSH2 0xC63 PUSH2 0x1760 JUMP JUMPDEST JUMPDEST PUSH1 0x20 ADD ADD SWAP1 PUSH31 0xFFFFFFFFFFFFFFFFFFFFFFFFFFFFFFFFFFFFFFFFFFFFFFFFFFFFFFFFFFFFFF NOT AND SWAP1 DUP2 PUSH1 0x0 BYTE SWAP1 MSTORE8 POP PUSH1 0x3 PUSH1 0xF8 SHL DUP10 DUP3 DUP16 PUSH2 0x1A0 ADD MLOAD PUSH2 0x200 PUSH2 0xCAD SWAP2 SWAP1 PUSH2 0x1848 JUMP JUMPDEST PUSH2 0xCB7 SWAP2 SWAP1 PUSH2 0x1848 JUMP JUMPDEST DUP2 MLOAD DUP2 LT PUSH2 0xCC8 JUMPI PUSH2 0xCC7 PUSH2 0x1760 JUMP JUMPDEST JUMPDEST PUSH1 0x20 ADD ADD SWAP1 PUSH31 0xFFFFFFFFFFFFFFFFFFFFFFFFFFFFFFFFFFFFFFFFFFFFFFFFFFFFFFFFFFFFFF NOT AND SWAP1 DUP2 PUSH1 0x0 BYTE SWAP1 MSTORE8 POP DUP1 DUP1 PUSH2 0xD02 SWAP1 PUSH2 0x17BE JUMP JUMPDEST SWAP2 POP POP PUSH2 0xC0D JUMP JUMPDEST POP DUP10 DUP10 DUP10 PUSH1 0x40 MLOAD PUSH1 0x20 ADD PUSH2 0xD20 SWAP4 SWAP3 SWAP2 SWAP1 PUSH2 0x1B1A JUMP JUMPDEST PUSH1 0x40 MLOAD PUSH1 0x20 DUP2 DUP4 SUB SUB DUP2 MSTORE SWAP1 PUSH1 0x40 MSTORE SWAP11 POP POP POP POP POP POP POP POP POP POP POP SWAP2 SWAP1 POP JUMP JUMPDEST PUSH2 0xDD8 DUP3 DUP3 PUSH1 0x40 MLOAD PUSH1 0x24 ADD PUSH2 0xD56 SWAP3 SWAP2 SWAP1 PUSH2 0x1BA4 JUMP JUMPDEST PUSH1 0x40 MLOAD PUSH1 0x20 DUP2 DUP4 SUB SUB DUP2 MSTORE SWAP1 PUSH1 0x40 MSTORE PUSH32 0xB60E72CC00000000000000000000000000000000000000000000000000000000 PUSH28 0xFFFFFFFFFFFFFFFFFFFFFFFFFFFFFFFFFFFFFFFFFFFFFFFFFFFFFFFF NOT AND PUSH1 0x20 DUP3 ADD DUP1 MLOAD PUSH28 0xFFFFFFFFFFFFFFFFFFFFFFFFFFFFFFFFFFFFFFFFFFFFFFFFFFFFFFFF DUP4 DUP2 DUP4 AND OR DUP4 MSTORE POP POP POP POP PUSH2 0xF49 JUMP JUMPDEST POP POP JUMP JUMPDEST PUSH2 0xE76 DUP4 DUP4 DUP4 PUSH1 0x40 MLOAD PUSH1 0x24 ADD PUSH2 0xDF4 SWAP4 SWAP3 SWAP2 SWAP1 PUSH2 0x1BD4 JUMP JUMPDEST PUSH1 0x40 MLOAD PUSH1 0x20 DUP2 DUP4 SUB SUB DUP2 MSTORE SWAP1 PUSH1 0x40 MSTORE PUSH32 0xCA47C4EB00000000000000000000000000000000000000000000000000000000 PUSH28 0xFFFFFFFFFFFFFFFFFFFFFFFFFFFFFFFFFFFFFFFFFFFFFFFFFFFFFFFF NOT AND PUSH1 0x20 DUP3 ADD DUP1 MLOAD PUSH28 0xFFFFFFFFFFFFFFFFFFFFFFFFFFFFFFFFFFFFFFFFFFFFFFFFFFFFFFFF DUP4 DUP2 DUP4 AND OR DUP4 MSTORE POP POP POP POP PUSH2 0xF49 JUMP JUMPDEST POP POP POP JUMP JUMPDEST PUSH1 0x60 PUSH1 0x0 PUSH1 0x1 PUSH2 0xE8A DUP5 PUSH2 0xF72 JUMP JUMPDEST ADD SWAP1 POP PUSH1 0x0 DUP2 PUSH8 0xFFFFFFFFFFFFFFFF DUP2 GT ISZERO PUSH2 0xEA9 JUMPI PUSH2 0xEA8 PUSH2 0x10EF JUMP JUMPDEST JUMPDEST PUSH1 0x40 MLOAD SWAP1 DUP1 DUP3 MSTORE DUP1 PUSH1 0x1F ADD PUSH1 0x1F NOT AND PUSH1 0x20 ADD DUP3 ADD PUSH1 0x40 MSTORE DUP1 ISZERO PUSH2 0xEDB JUMPI DUP2 PUSH1 0x20 ADD PUSH1 0x1 DUP3 MUL DUP1 CALLDATASIZE DUP4 CALLDATACOPY DUP1 DUP3 ADD SWAP2 POP POP SWAP1 POP JUMPDEST POP SWAP1 POP PUSH1 0x0 DUP3 PUSH1 0x20 ADD DUP3 ADD SWAP1 POP JUMPDEST PUSH1 0x1 ISZERO PUSH2 0xF3E JUMPI DUP1 DUP1 PUSH1 0x1 SWAP1 SUB SWAP2 POP POP PUSH32 0x3031323334353637383961626364656600000000000000000000000000000000 PUSH1 0xA DUP7 MOD BYTE DUP2 MSTORE8 PUSH1 0xA DUP6 DUP2 PUSH2 0xF32 JUMPI PUSH2 0xF31 PUSH2 0x1C12 JUMP JUMPDEST JUMPDEST DIV SWAP5 POP PUSH1 0x0 DUP6 SUB PUSH2 0xEE9 JUMPI JUMPDEST DUP2 SWAP4 POP POP POP POP SWAP2 SWAP1 POP JUMP JUMPDEST PUSH1 0x0 DUP2 MLOAD SWAP1 POP PUSH1 0x0 PUSH11 0x636F6E736F6C652E6C6F67 SWAP1 POP PUSH1 0x20 DUP4 ADD PUSH1 0x0 DUP1 DUP5 DUP4 DUP6 GAS STATICCALL POP POP POP POP POP JUMP JUMPDEST PUSH1 0x0 DUP1 PUSH1 0x0 SWAP1 POP PUSH27 0x184F03E93FF9F4DAA797ED6E38ED64BF6A1F010000000000000000 DUP4 LT PUSH2 0xFD0 JUMPI PUSH27 0x184F03E93FF9F4DAA797ED6E38ED64BF6A1F010000000000000000 DUP4 DUP2 PUSH2 0xFC6 JUMPI PUSH2 0xFC5 PUSH2 0x1C12 JUMP JUMPDEST JUMPDEST DIV SWAP3 POP PUSH1 0x40 DUP2 ADD SWAP1 POP JUMPDEST PUSH14 0x4EE2D6D415B85ACEF8100000000 DUP4 LT PUSH2 0x100D JUMPI PUSH14 0x4EE2D6D415B85ACEF8100000000 DUP4 DUP2 PUSH2 0x1003 JUMPI PUSH2 0x1002 PUSH2 0x1C12 JUMP JUMPDEST JUMPDEST DIV SWAP3 POP PUSH1 0x20 DUP2 ADD SWAP1 POP JUMPDEST PUSH7 0x2386F26FC10000 DUP4 LT PUSH2 0x103C JUMPI PUSH7 0x2386F26FC10000 DUP4 DUP2 PUSH2 0x1032 JUMPI PUSH2 0x1031 PUSH2 0x1C12 JUMP JUMPDEST JUMPDEST DIV SWAP3 POP PUSH1 0x10 DUP2 ADD SWAP1 POP JUMPDEST PUSH4 0x5F5E100 DUP4 LT PUSH2 0x1065 JUMPI PUSH4 0x5F5E100 DUP4 DUP2 PUSH2 0x105B JUMPI PUSH2 0x105A PUSH2 0x1C12 JUMP JUMPDEST JUMPDEST DIV SWAP3 POP PUSH1 0x8 DUP2 ADD SWAP1 POP JUMPDEST PUSH2 0x2710 DUP4 LT PUSH2 0x108A JUMPI PUSH2 0x2710 DUP4 DUP2 PUSH2 0x1080 JUMPI PUSH2 0x107F PUSH2 0x1C12 JUMP JUMPDEST JUMPDEST DIV SWAP3 POP PUSH1 0x4 DUP2 ADD SWAP1 POP JUMPDEST PUSH1 0x64 DUP4 LT PUSH2 0x10AD JUMPI PUSH1 0x64 DUP4 DUP2 PUSH2 0x10A3 JUMPI PUSH2 0x10A2 PUSH2 0x1C12 JUMP JUMPDEST JUMPDEST DIV SWAP3 POP PUSH1 0x2 DUP2 ADD SWAP1 POP JUMPDEST PUSH1 0xA DUP4 LT PUSH2 0x10BC JUMPI PUSH1 0x1 DUP2 ADD SWAP1 POP JUMPDEST DUP1 SWAP2 POP POP SWAP2 SWAP1 POP JUMP JUMPDEST PUSH1 0x0 PUSH1 0x40 MLOAD SWAP1 POP SWAP1 JUMP JUMPDEST PUSH1 0x0 DUP1 REVERT JUMPDEST PUSH1 0x0 DUP1 REVERT JUMPDEST PUSH1 0x0 DUP1 REVERT JUMPDEST PUSH1 0x0 PUSH1 0x1F NOT PUSH1 0x1F DUP4 ADD AND SWAP1 POP SWAP2 SWAP1 POP JUMP JUMPDEST PUSH32 0x4E487B7100000000000000000000000000000000000000000000000000000000 PUSH1 0x0 MSTORE PUSH1 0x41 PUSH1 0x4 MSTORE PUSH1 0x24 PUSH1 0x0 REVERT JUMPDEST PUSH2 0x1127 DUP3 PUSH2 0x10DE JUMP JUMPDEST DUP2 ADD DUP2 DUP2 LT PUSH8 0xFFFFFFFFFFFFFFFF DUP3 GT OR ISZERO PUSH2 0x1146 JUMPI PUSH2 0x1145 PUSH2 0x10EF JUMP JUMPDEST JUMPDEST DUP1 PUSH1 0x40 MSTORE POP POP POP JUMP JUMPDEST PUSH1 0x0 PUSH2 0x1159 PUSH2 0x10C5 JUMP JUMPDEST SWAP1 POP PUSH2 0x1165 DUP3 DUP3 PUSH2 0x111E JUMP JUMPDEST SWAP2 SWAP1 POP JUMP JUMPDEST PUSH1 0x0 DUP1 REVERT JUMPDEST PUSH1 0x0 DUP2 SWAP1 POP SWAP2 SWAP1 POP JUMP JUMPDEST PUSH2 0x1182 DUP2 PUSH2 0x116F JUMP JUMPDEST DUP2 EQ PUSH2 0x118D JUMPI PUSH1 0x0 DUP1 REVERT JUMPDEST POP JUMP JUMPDEST PUSH1 0x0 DUP2 CALLDATALOAD SWAP1 POP PUSH2 0x119F DUP2 PUSH2 0x1179 JUMP JUMPDEST SWAP3 SWAP2 POP POP JUMP JUMPDEST PUSH1 0x0 DUP1 REVERT JUMPDEST PUSH1 0x0 DUP1 REVERT JUMPDEST PUSH1 0x0 PUSH8 0xFFFFFFFFFFFFFFFF DUP3 GT ISZERO PUSH2 0x11CA JUMPI PUSH2 0x11C9 PUSH2 0x10EF JUMP JUMPDEST JUMPDEST PUSH2 0x11D3 DUP3 PUSH2 0x10DE JUMP JUMPDEST SWAP1 POP PUSH1 0x20 DUP2 ADD SWAP1 POP SWAP2 SWAP1 POP JUMP JUMPDEST DUP3 DUP2 DUP4 CALLDATACOPY PUSH1 0x0 DUP4 DUP4 ADD MSTORE POP POP POP JUMP JUMPDEST PUSH1 0x0 PUSH2 0x1202 PUSH2 0x11FD DUP5 PUSH2 0x11AF JUMP JUMPDEST PUSH2 0x114F JUMP JUMPDEST SWAP1 POP DUP3 DUP2 MSTORE PUSH1 0x20 DUP2 ADD DUP5 DUP5 DUP5 ADD GT ISZERO PUSH2 0x121E JUMPI PUSH2 0x121D PUSH2 0x11AA JUMP JUMPDEST JUMPDEST PUSH2 0x1229 DUP5 DUP3 DUP6 PUSH2 0x11E0 JUMP JUMPDEST POP SWAP4 SWAP3 POP POP POP JUMP JUMPDEST PUSH1 0x0 DUP3 PUSH1 0x1F DUP4 ADD SLT PUSH2 0x1246 JUMPI PUSH2 0x1245 PUSH2 0x11A5 JUMP JUMPDEST JUMPDEST DUP2 CALLDATALOAD PUSH2 0x1256 DUP5 DUP3 PUSH1 0x20 DUP7 ADD PUSH2 0x11EF JUMP JUMPDEST SWAP2 POP POP SWAP3 SWAP2 POP POP JUMP JUMPDEST PUSH1 0x0 PUSH2 0x1E0 DUP3 DUP5 SUB SLT ISZERO PUSH2 0x1276 JUMPI PUSH2 0x1275 PUSH2 0x10D9 JUMP JUMPDEST JUMPDEST PUSH2 0x1281 PUSH2 0x1E0 PUSH2 0x114F JUMP JUMPDEST SWAP1 POP PUSH1 0x0 PUSH2 0x1291 DUP5 DUP3 DUP6 ADD PUSH2 0x1190 JUMP JUMPDEST PUSH1 0x0 DUP4 ADD MSTORE POP PUSH1 0x20 DUP3 ADD CALLDATALOAD PUSH8 0xFFFFFFFFFFFFFFFF DUP2 GT ISZERO PUSH2 0x12B5 JUMPI PUSH2 0x12B4 PUSH2 0x116A JUMP JUMPDEST JUMPDEST PUSH2 0x12C1 DUP5 DUP3 DUP6 ADD PUSH2 0x1231 JUMP JUMPDEST PUSH1 0x20 DUP4 ADD MSTORE POP PUSH1 0x40 PUSH2 0x12D5 DUP5 DUP3 DUP6 ADD PUSH2 0x1190 JUMP JUMPDEST PUSH1 0x40 DUP4 ADD MSTORE POP PUSH1 0x60 DUP3 ADD CALLDATALOAD PUSH8 0xFFFFFFFFFFFFFFFF DUP2 GT ISZERO PUSH2 0x12F9 JUMPI PUSH2 0x12F8 PUSH2 0x116A JUMP JUMPDEST JUMPDEST PUSH2 0x1305 DUP5 DUP3 DUP6 ADD PUSH2 0x1231 JUMP JUMPDEST PUSH1 0x60 DUP4 ADD MSTORE POP PUSH1 0x80 PUSH2 0x1319 DUP5 DUP3 DUP6 ADD PUSH2 0x1190 JUMP JUMPDEST PUSH1 0x80 DUP4 ADD MSTORE POP PUSH1 0xA0 DUP3 ADD CALLDATALOAD PUSH8 0xFFFFFFFFFFFFFFFF DUP2 GT ISZERO PUSH2 0x133D JUMPI PUSH2 0x133C PUSH2 0x116A JUMP JUMPDEST JUMPDEST PUSH2 0x1349 DUP5 DUP3 DUP6 ADD PUSH2 0x1231 JUMP JUMPDEST PUSH1 0xA0 DUP4 ADD MSTORE POP PUSH1 0xC0 PUSH2 0x135D DUP5 DUP3 DUP6 ADD PUSH2 0x1190 JUMP JUMPDEST PUSH1 0xC0 DUP4 ADD MSTORE POP PUSH1 0xE0 PUSH2 0x1371 DUP5 DUP3 DUP6 ADD PUSH2 0x1190 JUMP JUMPDEST PUSH1 0xE0 DUP4 ADD MSTORE POP PUSH2 0x100 PUSH2 0x1386 DUP5 DUP3 DUP6 ADD PUSH2 0x1190 JUMP JUMPDEST PUSH2 0x100 DUP4 ADD MSTORE POP PUSH2 0x120 PUSH2 0x139C DUP5 DUP3 DUP6 ADD PUSH2 0x1190 JUMP JUMPDEST PUSH2 0x120 DUP4 ADD MSTORE POP PUSH2 0x140 PUSH2 0x13B2 DUP5 DUP3 DUP6 ADD PUSH2 0x1190 JUMP JUMPDEST PUSH2 0x140 DUP4 ADD MSTORE POP PUSH2 0x160 PUSH2 0x13C8 DUP5 DUP3 DUP6 ADD PUSH2 0x1190 JUMP JUMPDEST PUSH2 0x160 DUP4 ADD MSTORE POP PUSH2 0x180 DUP3 ADD CALLDATALOAD PUSH8 0xFFFFFFFFFFFFFFFF DUP2 GT ISZERO PUSH2 0x13EE JUMPI PUSH2 0x13ED PUSH2 0x116A JUMP JUMPDEST JUMPDEST PUSH2 0x13FA DUP5 DUP3 DUP6 ADD PUSH2 0x1231 JUMP JUMPDEST PUSH2 0x180 DUP4 ADD MSTORE POP PUSH2 0x1A0 PUSH2 0x1410 DUP5 DUP3 DUP6 ADD PUSH2 0x1190 JUMP JUMPDEST PUSH2 0x1A0 DUP4 ADD MSTORE POP PUSH2 0x1C0 DUP3 ADD CALLDATALOAD PUSH8 0xFFFFFFFFFFFFFFFF DUP2 GT ISZERO PUSH2 0x1436 JUMPI PUSH2 0x1435 PUSH2 0x116A JUMP JUMPDEST JUMPDEST PUSH2 0x1442 DUP5 DUP3 DUP6 ADD PUSH2 0x1231 JUMP JUMPDEST PUSH2 0x1C0 DUP4 ADD MSTORE POP SWAP3 SWAP2 POP POP JUMP JUMPDEST PUSH1 0x0 DUP1 REVERT JUMPDEST PUSH1 0x0 DUP1 REVERT JUMPDEST PUSH1 0x0 DUP1 DUP4 PUSH1 0x1F DUP5 ADD SLT PUSH2 0x146F JUMPI PUSH2 0x146E PUSH2 0x11A5 JUMP JUMPDEST JUMPDEST DUP3 CALLDATALOAD SWAP1 POP PUSH8 0xFFFFFFFFFFFFFFFF DUP2 GT ISZERO PUSH2 0x148C JUMPI PUSH2 0x148B PUSH2 0x144F JUMP JUMPDEST JUMPDEST PUSH1 0x20 DUP4 ADD SWAP2 POP DUP4 PUSH1 0x1 DUP3 MUL DUP4 ADD GT ISZERO PUSH2 0x14A8 JUMPI PUSH2 0x14A7 PUSH2 0x1454 JUMP JUMPDEST JUMPDEST SWAP3 POP SWAP3 SWAP1 POP JUMP JUMPDEST PUSH1 0x0 DUP1 PUSH1 0x0 DUP1 PUSH1 0x0 PUSH1 0x60 DUP7 DUP9 SUB SLT ISZERO PUSH2 0x14CB JUMPI PUSH2 0x14CA PUSH2 0x10CF JUMP JUMPDEST JUMPDEST PUSH1 0x0 DUP7 ADD CALLDATALOAD PUSH8 0xFFFFFFFFFFFFFFFF DUP2 GT ISZERO PUSH2 0x14E9 JUMPI PUSH2 0x14E8 PUSH2 0x10D4 JUMP JUMPDEST JUMPDEST PUSH2 0x14F5 DUP9 DUP3 DUP10 ADD PUSH2 0x125F JUMP JUMPDEST SWAP6 POP POP PUSH1 0x20 DUP7 ADD CALLDATALOAD PUSH8 0xFFFFFFFFFFFFFFFF DUP2 GT ISZERO PUSH2 0x1516 JUMPI PUSH2 0x1515 PUSH2 0x10D4 JUMP JUMPDEST JUMPDEST PUSH2 0x1522 DUP9 DUP3 DUP10 ADD PUSH2 0x1459 JUMP JUMPDEST SWAP5 POP SWAP5 POP POP PUSH1 0x40 DUP7 ADD CALLDATALOAD PUSH8 0xFFFFFFFFFFFFFFFF DUP2 GT ISZERO PUSH2 0x1545 JUMPI PUSH2 0x1544 PUSH2 0x10D4 JUMP JUMPDEST JUMPDEST PUSH2 0x1551 DUP9 DUP3 DUP10 ADD PUSH2 0x1459 JUMP JUMPDEST SWAP3 POP SWAP3 POP POP SWAP3 SWAP6 POP SWAP3 SWAP6 SWAP1 SWAP4 POP JUMP JUMPDEST PUSH1 0x0 DUP2 ISZERO ISZERO SWAP1 POP SWAP2 SWAP1 POP JUMP JUMPDEST PUSH2 0x1575 DUP2 PUSH2 0x1560 JUMP JUMPDEST DUP3 MSTORE POP POP JUMP JUMPDEST PUSH1 0x0 PUSH1 0x20 DUP3 ADD SWAP1 POP PUSH2 0x1590 PUSH1 0x0 DUP4 ADD DUP5 PUSH2 0x156C JUMP JUMPDEST SWAP3 SWAP2 POP POP JUMP JUMPDEST PUSH1 0x0 DUP2 MLOAD SWAP1 POP SWAP2 SWAP1 POP JUMP JUMPDEST PUSH1 0x0 DUP2 SWAP1 POP SWAP3 SWAP2 POP POP JUMP JUMPDEST PUSH1 0x0 JUMPDEST DUP4 DUP2 LT ISZERO PUSH2 0x15CA JUMPI DUP1 DUP3 ADD MLOAD DUP2 DUP5 ADD MSTORE PUSH1 0x20 DUP2 ADD SWAP1 POP PUSH2 0x15AF JUMP JUMPDEST PUSH1 0x0 DUP5 DUP5 ADD MSTORE POP POP POP POP JUMP JUMPDEST PUSH1 0x0 PUSH2 0x15E1 DUP3 PUSH2 0x1596 JUMP JUMPDEST PUSH2 0x15EB DUP2 DUP6 PUSH2 0x15A1 JUMP JUMPDEST SWAP4 POP PUSH2 0x15FB DUP2 DUP6 PUSH1 0x20 DUP7 ADD PUSH2 0x15AC JUMP JUMPDEST DUP1 DUP5 ADD SWAP2 POP POP SWAP3 SWAP2 POP POP JUMP JUMPDEST PUSH1 0x0 PUSH2 0x1613 DUP3 DUP5 PUSH2 0x15D6 JUMP JUMPDEST SWAP2 POP DUP2 SWAP1 POP SWAP3 SWAP2 POP POP JUMP JUMPDEST PUSH1 0x0 DUP2 SWAP1 POP SWAP2 SWAP1 POP JUMP JUMPDEST PUSH2 0x1631 DUP2 PUSH2 0x161E JUMP JUMPDEST DUP2 EQ PUSH2 0x163C JUMPI PUSH1 0x0 DUP1 REVERT JUMPDEST POP JUMP JUMPDEST PUSH1 0x0 DUP2 MLOAD SWAP1 POP PUSH2 0x164E DUP2 PUSH2 0x1628 JUMP JUMPDEST SWAP3 SWAP2 POP POP JUMP JUMPDEST PUSH1 0x0 PUSH1 0x20 DUP3 DUP5 SUB SLT ISZERO PUSH2 0x166A JUMPI PUSH2 0x1669 PUSH2 0x10CF JUMP JUMPDEST JUMPDEST PUSH1 0x0 PUSH2 0x1678 DUP5 DUP3 DUP6 ADD PUSH2 0x163F JUMP JUMPDEST SWAP2 POP POP SWAP3 SWAP2 POP POP JUMP JUMPDEST PUSH1 0x0 PUSH8 0xFFFFFFFFFFFFFFFF DUP3 GT ISZERO PUSH2 0x169C JUMPI PUSH2 0x169B PUSH2 0x10EF JUMP JUMPDEST JUMPDEST PUSH1 0x20 DUP3 MUL SWAP1 POP SWAP2 SWAP1 POP JUMP JUMPDEST PUSH1 0x0 PUSH2 0x16BA PUSH2 0x16B5 DUP5 PUSH2 0x1681 JUMP JUMPDEST PUSH2 0x114F JUMP JUMPDEST SWAP1 POP DUP1 PUSH1 0x20 DUP5 MUL DUP4 ADD DUP6 DUP2 GT ISZERO PUSH2 0x16D4 JUMPI PUSH2 0x16D3 PUSH2 0x1454 JUMP JUMPDEST JUMPDEST DUP4 JUMPDEST DUP2 DUP2 LT ISZERO PUSH2 0x16FD JUMPI DUP1 PUSH2 0x16E9 DUP9 DUP3 PUSH2 0x1190 JUMP JUMPDEST DUP5 MSTORE PUSH1 0x20 DUP5 ADD SWAP4 POP POP PUSH1 0x20 DUP2 ADD SWAP1 POP PUSH2 0x16D6 JUMP JUMPDEST POP POP POP SWAP4 SWAP3 POP POP POP JUMP JUMPDEST PUSH1 0x0 DUP3 PUSH1 0x1F DUP4 ADD SLT PUSH2 0x171C JUMPI PUSH2 0x171B PUSH2 0x11A5 JUMP JUMPDEST JUMPDEST PUSH1 0xC PUSH2 0x1729 DUP5 DUP3 DUP6 PUSH2 0x16A7 JUMP JUMPDEST SWAP2 POP POP SWAP3 SWAP2 POP POP JUMP JUMPDEST PUSH1 0x0 PUSH2 0x180 DUP3 DUP5 SUB SLT ISZERO PUSH2 0x1749 JUMPI PUSH2 0x1748 PUSH2 0x10CF JUMP JUMPDEST JUMPDEST PUSH1 0x0 PUSH2 0x1757 DUP5 DUP3 DUP6 ADD PUSH2 0x1707 JUMP JUMPDEST SWAP2 POP POP SWAP3 SWAP2 POP POP JUMP JUMPDEST PUSH32 0x4E487B7100000000000000000000000000000000000000000000000000000000 PUSH1 0x0 MSTORE PUSH1 0x32 PUSH1 0x4 MSTORE PUSH1 0x24 PUSH1 0x0 REVERT JUMPDEST PUSH32 0x4E487B7100000000000000000000000000000000000000000000000000000000 PUSH1 0x0 MSTORE PUSH1 0x11 PUSH1 0x4 MSTORE PUSH1 0x24 PUSH1 0x0 REVERT JUMPDEST PUSH1 0x0 PUSH2 0x17C9 DUP3 PUSH2 0x116F JUMP JUMPDEST SWAP2 POP PUSH32 0xFFFFFFFFFFFFFFFFFFFFFFFFFFFFFFFFFFFFFFFFFFFFFFFFFFFFFFFFFFFFFFFF DUP3 SUB PUSH2 0x17FB JUMPI PUSH2 0x17FA PUSH2 0x178F JUMP JUMPDEST JUMPDEST PUSH1 0x1 DUP3 ADD SWAP1 POP SWAP2 SWAP1 POP JUMP JUMPDEST PUSH1 0x0 PUSH2 0x1811 DUP3 PUSH2 0x116F JUMP JUMPDEST SWAP2 POP PUSH2 0x181C DUP4 PUSH2 0x116F JUMP JUMPDEST SWAP3 POP DUP3 DUP3 MUL PUSH2 0x182A DUP2 PUSH2 0x116F JUMP JUMPDEST SWAP2 POP DUP3 DUP3 DIV DUP5 EQ DUP4 ISZERO OR PUSH2 0x1841 JUMPI PUSH2 0x1840 PUSH2 0x178F JUMP JUMPDEST JUMPDEST POP SWAP3 SWAP2 POP POP JUMP JUMPDEST PUSH1 0x0 PUSH2 0x1853 DUP3 PUSH2 0x116F JUMP JUMPDEST SWAP2 POP PUSH2 0x185E DUP4 PUSH2 0x116F JUMP JUMPDEST SWAP3 POP DUP3 DUP3 ADD SWAP1 POP DUP1 DUP3 GT ISZERO PUSH2 0x1876 JUMPI PUSH2 0x1875 PUSH2 0x178F JUMP JUMPDEST JUMPDEST SWAP3 SWAP2 POP POP JUMP JUMPDEST PUSH1 0x0 DUP2 MLOAD SWAP1 POP SWAP2 SWAP1 POP JUMP JUMPDEST PUSH1 0x0 DUP3 DUP3 MSTORE PUSH1 0x20 DUP3 ADD SWAP1 POP SWAP3 SWAP2 POP POP JUMP JUMPDEST PUSH1 0x0 DUP2 SWAP1 POP PUSH1 0x20 DUP3 ADD SWAP1 POP SWAP2 SWAP1 POP JUMP JUMPDEST PUSH2 0x18B1 DUP2 PUSH2 0x116F JUMP JUMPDEST DUP3 MSTORE POP POP JUMP JUMPDEST PUSH1 0x0 PUSH2 0x18C3 DUP4 DUP4 PUSH2 0x18A8 JUMP JUMPDEST PUSH1 0x20 DUP4 ADD SWAP1 POP SWAP3 SWAP2 POP POP JUMP JUMPDEST PUSH1 0x0 PUSH1 0x20 DUP3 ADD SWAP1 POP SWAP2 SWAP1 POP JUMP JUMPDEST PUSH1 0x0 PUSH2 0x18E7 DUP3 PUSH2 0x187C JUMP JUMPDEST PUSH2 0x18F1 DUP2 DUP6 PUSH2 0x1887 JUMP JUMPDEST SWAP4 POP PUSH2 0x18FC DUP4 PUSH2 0x1898 JUMP JUMPDEST DUP1 PUSH1 0x0 JUMPDEST DUP4 DUP2 LT ISZERO PUSH2 0x192D JUMPI DUP2 MLOAD PUSH2 0x1914 DUP9 DUP3 PUSH2 0x18B7 JUMP JUMPDEST SWAP8 POP PUSH2 0x191F DUP4 PUSH2 0x18CF JUMP JUMPDEST SWAP3 POP POP PUSH1 0x1 DUP2 ADD SWAP1 POP PUSH2 0x1900 JUMP JUMPDEST POP DUP6 SWAP4 POP POP POP POP SWAP3 SWAP2 POP POP JUMP JUMPDEST PUSH1 0x0 DUP3 DUP3 MSTORE PUSH1 0x20 DUP3 ADD SWAP1 POP SWAP3 SWAP2 POP POP JUMP JUMPDEST PUSH1 0x0 PUSH2 0x1957 DUP4 DUP6 PUSH2 0x193A JUMP JUMPDEST SWAP4 POP PUSH2 0x1964 DUP4 DUP6 DUP5 PUSH2 0x11E0 JUMP JUMPDEST PUSH2 0x196D DUP4 PUSH2 0x10DE JUMP JUMPDEST DUP5 ADD SWAP1 POP SWAP4 SWAP3 POP POP POP JUMP JUMPDEST PUSH1 0x0 PUSH1 0x40 DUP3 ADD SWAP1 POP DUP2 DUP2 SUB PUSH1 0x0 DUP4 ADD MSTORE PUSH2 0x1992 DUP2 DUP7 PUSH2 0x18DC JUMP JUMPDEST SWAP1 POP DUP2 DUP2 SUB PUSH1 0x20 DUP4 ADD MSTORE PUSH2 0x19A7 DUP2 DUP5 DUP7 PUSH2 0x194B JUMP JUMPDEST SWAP1 POP SWAP5 SWAP4 POP POP POP POP JUMP JUMPDEST PUSH2 0x19BA DUP2 PUSH2 0x1560 JUMP JUMPDEST DUP2 EQ PUSH2 0x19C5 JUMPI PUSH1 0x0 DUP1 REVERT JUMPDEST POP JUMP JUMPDEST PUSH1 0x0 DUP2 MLOAD SWAP1 POP PUSH2 0x19D7 DUP2 PUSH2 0x19B1 JUMP JUMPDEST SWAP3 SWAP2 POP POP JUMP JUMPDEST PUSH1 0x0 PUSH1 0x20 DUP3 DUP5 SUB SLT ISZERO PUSH2 0x19F3 JUMPI PUSH2 0x19F2 PUSH2 0x10CF JUMP JUMPDEST JUMPDEST PUSH1 0x0 PUSH2 0x1A01 DUP5 DUP3 DUP6 ADD PUSH2 0x19C8 JUMP JUMPDEST SWAP2 POP POP SWAP3 SWAP2 POP POP JUMP JUMPDEST PUSH1 0x0 PUSH2 0x1A16 DUP3 DUP6 PUSH2 0x15D6 JUMP JUMPDEST SWAP2 POP PUSH2 0x1A22 DUP3 DUP5 PUSH2 0x15D6 JUMP JUMPDEST SWAP2 POP DUP2 SWAP1 POP SWAP4 SWAP3 POP POP POP JUMP JUMPDEST PUSH32 0x456D61696C2057616C6C6574204D616E6970756C6174696F6E20494420000000 DUP2 MSTORE POP JUMP JUMPDEST PUSH1 0x0 DUP2 MLOAD SWAP1 POP SWAP2 SWAP1 POP JUMP JUMPDEST PUSH1 0x0 DUP2 SWAP1 POP SWAP3 SWAP2 POP POP JUMP JUMPDEST PUSH1 0x0 PUSH2 0x1A75 DUP3 PUSH2 0x1A54 JUMP JUMPDEST PUSH2 0x1A7F DUP2 DUP6 PUSH2 0x1A5F JUMP JUMPDEST SWAP4 POP PUSH2 0x1A8F DUP2 DUP6 PUSH1 0x20 DUP7 ADD PUSH2 0x15AC JUMP JUMPDEST DUP1 DUP5 ADD SWAP2 POP POP SWAP3 SWAP2 POP POP JUMP JUMPDEST PUSH1 0x0 PUSH2 0x1AA6 DUP3 PUSH2 0x1A2E JUMP JUMPDEST PUSH1 0x1D DUP3 ADD SWAP2 POP PUSH2 0x1AB6 DUP3 DUP5 PUSH2 0x1A6A JUMP JUMPDEST SWAP2 POP DUP2 SWAP1 POP SWAP3 SWAP2 POP POP JUMP JUMPDEST PUSH32 0x2E00000000000000000000000000000000000000000000000000000000000000 DUP2 MSTORE POP JUMP JUMPDEST PUSH1 0x0 PUSH2 0x1AF3 DUP3 DUP6 PUSH2 0x1A6A JUMP JUMPDEST SWAP2 POP PUSH2 0x1AFE DUP3 PUSH2 0x1AC1 JUMP JUMPDEST PUSH1 0x1 DUP3 ADD SWAP2 POP PUSH2 0x1B0E DUP3 DUP5 PUSH2 0x1A6A JUMP JUMPDEST SWAP2 POP DUP2 SWAP1 POP SWAP4 SWAP3 POP POP POP JUMP JUMPDEST PUSH1 0x0 PUSH2 0x1B26 DUP3 DUP7 PUSH2 0x15D6 JUMP JUMPDEST SWAP2 POP PUSH2 0x1B32 DUP3 DUP6 PUSH2 0x15D6 JUMP JUMPDEST SWAP2 POP PUSH2 0x1B3E DUP3 DUP5 PUSH2 0x15D6 JUMP JUMPDEST SWAP2 POP DUP2 SWAP1 POP SWAP5 SWAP4 POP POP POP POP JUMP JUMPDEST PUSH1 0x0 DUP3 DUP3 MSTORE PUSH1 0x20 DUP3 ADD SWAP1 POP SWAP3 SWAP2 POP POP JUMP JUMPDEST PUSH1 0x0 PUSH2 0x1B67 DUP3 PUSH2 0x1A54 JUMP JUMPDEST PUSH2 0x1B71 DUP2 DUP6 PUSH2 0x1B4B JUMP JUMPDEST SWAP4 POP PUSH2 0x1B81 DUP2 DUP6 PUSH1 0x20 DUP7 ADD PUSH2 0x15AC JUMP JUMPDEST PUSH2 0x1B8A DUP2 PUSH2 0x10DE JUMP JUMPDEST DUP5 ADD SWAP2 POP POP SWAP3 SWAP2 POP POP JUMP JUMPDEST PUSH2 0x1B9E DUP2 PUSH2 0x116F JUMP JUMPDEST DUP3 MSTORE POP POP JUMP JUMPDEST PUSH1 0x0 PUSH1 0x40 DUP3 ADD SWAP1 POP DUP2 DUP2 SUB PUSH1 0x0 DUP4 ADD MSTORE PUSH2 0x1BBE DUP2 DUP6 PUSH2 0x1B5C JUMP JUMPDEST SWAP1 POP PUSH2 0x1BCD PUSH1 0x20 DUP4 ADD DUP5 PUSH2 0x1B95 JUMP JUMPDEST SWAP4 SWAP3 POP POP POP JUMP JUMPDEST PUSH1 0x0 PUSH1 0x60 DUP3 ADD SWAP1 POP DUP2 DUP2 SUB PUSH1 0x0 DUP4 ADD MSTORE PUSH2 0x1BEE DUP2 DUP7 PUSH2 0x1B5C JUMP JUMPDEST SWAP1 POP PUSH2 0x1BFD PUSH1 0x20 DUP4 ADD DUP6 PUSH2 0x1B95 JUMP JUMPDEST PUSH2 0x1C0A PUSH1 0x40 DUP4 ADD DUP5 PUSH2 0x1B95 JUMP JUMPDEST SWAP5 SWAP4 POP POP POP POP JUMP JUMPDEST PUSH32 0x4E487B7100000000000000000000000000000000000000000000000000000000 PUSH1 0x0 MSTORE PUSH1 0x12 PUSH1 0x4 MSTORE PUSH1 0x24 PUSH1 0x0 REVERT INVALID LOG2 PUSH5 0x6970667358 0x22 SLT KECCAK256 0x2C 0xFB SELFBALANCE CALLER 0xCE 0xEC MSTORE8 0xE5 0xDB CODECOPY PUSH5 0x523B3E02AA XOR PUSH14 0xC29CE71A56B0DB90C80B48D9D434 PUSH5 0x736F6C6343 STOP ADDMOD GT STOP CALLER "
		},
		"gasEstimates": {
			"creation": {
				"codeDepositCost": "1457400",
				"executionCost": "infinite",
				"totalCost": "infinite"
			},
			"external": {
				"verifyWrap((uint256,string,uint256,string,uint256,string,uint256,uint256,uint256,uint256,uint256,uint256,string,uint256,string),bytes,bytes)": "infinite"
			},
			"internal": {
				"convertParamToBytes(struct VerifierWrapper.Param memory)": "infinite"
			}
		},
		"methodIdentifiers": {
			"verifyWrap((uint256,string,uint256,string,uint256,string,uint256,uint256,uint256,uint256,uint256,uint256,string,uint256,string),bytes,bytes)": "60be6322"
		}
	},
	"abi": [
		{
			"inputs": [
				{
					"internalType": "address",
					"name": "_verifier",
					"type": "address"
				}
			],
			"stateMutability": "nonpayable",
			"type": "constructor"
		},
		{
			"inputs": [
				{
					"components": [
						{
							"internalType": "uint256",
							"name": "bodyHashStart",
							"type": "uint256"
						},
						{
							"internalType": "string",
							"name": "bodyHashString",
							"type": "string"
						},
						{
							"internalType": "uint256",
							"name": "fromAddressStart",
							"type": "uint256"
						},
						{
							"internalType": "string",
							"name": "fromAddressString",
							"type": "string"
						},
						{
							"internalType": "uint256",
							"name": "toAddressStart",
							"type": "uint256"
						},
						{
							"internalType": "string",
							"name": "toAddressString",
							"type": "string"
						},
						{
							"internalType": "uint256",
							"name": "subjectStart",
							"type": "uint256"
						},
						{
							"internalType": "uint256",
							"name": "manipulationIdUint",
							"type": "uint256"
						},
						{
							"internalType": "uint256",
							"name": "substr0Start",
							"type": "uint256"
						},
						{
							"internalType": "uint256",
							"name": "substr0IntPart",
							"type": "uint256"
						},
						{
							"internalType": "uint256",
							"name": "substr0DecimalPart",
							"type": "uint256"
						},
						{
							"internalType": "uint256",
							"name": "substr1Start",
							"type": "uint256"
						},
						{
							"internalType": "string",
							"name": "substr1String",
							"type": "string"
						},
						{
							"internalType": "uint256",
							"name": "substr2Start",
							"type": "uint256"
						},
						{
							"internalType": "string",
							"name": "substr2String",
							"type": "string"
						}
					],
					"internalType": "struct VerifierWrapper.Param",
					"name": "param",
					"type": "tuple"
				},
				{
					"internalType": "bytes",
					"name": "acc",
					"type": "bytes"
				},
				{
					"internalType": "bytes",
					"name": "proof",
					"type": "bytes"
				}
			],
			"name": "verifyWrap",
			"outputs": [
				{
					"internalType": "bool",
					"name": "",
					"type": "bool"
				}
			],
			"stateMutability": "view",
			"type": "function"
		}
	]
}